{
  "_format": "hh-sol-artifact-1",
  "contractName": "Pawnshop",
  "sourceName": "contracts/Pawnshop.sol",
  "abi": [
    {
      "inputs": [],
      "stateMutability": "payable",
      "type": "constructor"
    },
    {
      "anonymous": false,
      "inputs": [
        {
          "indexed": true,
          "internalType": "address",
          "name": "operator",
          "type": "address"
        },
        {
          "indexed": true,
          "internalType": "address",
          "name": "from",
          "type": "address"
        },
        {
          "indexed": true,
          "internalType": "uint256",
          "name": "tokenId",
          "type": "uint256"
        },
        {
          "indexed": false,
          "internalType": "bytes",
          "name": "data",
          "type": "bytes"
        }
      ],
      "name": "ERC721Received",
      "type": "event"
    },
    {
      "anonymous": false,
      "inputs": [
        {
          "indexed": true,
          "internalType": "address",
          "name": "previousOwner",
          "type": "address"
        },
        {
          "indexed": true,
          "internalType": "address",
          "name": "newOwner",
          "type": "address"
        }
      ],
      "name": "OwnershipTransferred",
      "type": "event"
    },
    {
      "anonymous": false,
      "inputs": [
        {
          "indexed": true,
          "internalType": "uint256",
          "name": "pawnId",
          "type": "uint256"
        },
        {
          "indexed": true,
          "internalType": "address",
          "name": "account",
          "type": "address"
        },
        {
          "indexed": false,
          "internalType": "address",
          "name": "nftAddress",
          "type": "address"
        },
        {
          "indexed": false,
          "internalType": "uint256",
          "name": "nftId",
          "type": "uint256"
        }
      ],
      "name": "PawnCanceled",
      "type": "event"
    },
    {
      "anonymous": false,
      "inputs": [
        {
          "indexed": true,
          "internalType": "uint256",
          "name": "pawnId",
          "type": "uint256"
        },
        {
          "indexed": true,
          "internalType": "address",
          "name": "account",
          "type": "address"
        },
        {
          "indexed": false,
          "internalType": "address",
          "name": "nftAddress",
          "type": "address"
        },
        {
          "indexed": false,
          "internalType": "uint256",
          "name": "nftId",
          "type": "uint256"
        }
      ],
      "name": "PawnConfiscated",
      "type": "event"
    },
    {
      "anonymous": false,
      "inputs": [
        {
          "indexed": true,
          "internalType": "uint256",
          "name": "pawnId",
          "type": "uint256"
        },
        {
          "indexed": true,
          "internalType": "address",
          "name": "account",
          "type": "address"
        },
        {
          "indexed": false,
          "internalType": "address",
          "name": "nftAddress",
          "type": "address"
        },
        {
          "indexed": false,
          "internalType": "uint256",
          "name": "nftId",
          "type": "uint256"
        },
        {
          "indexed": false,
          "internalType": "uint256",
          "name": "loanAmount",
          "type": "uint256"
        },
        {
          "indexed": false,
          "internalType": "uint256",
          "name": "interest",
          "type": "uint256"
        },
        {
          "indexed": false,
          "internalType": "uint256",
          "name": "loanDeadline",
          "type": "uint256"
        },
        {
          "indexed": false,
          "internalType": "uint256",
          "name": "redemptionDeadline",
          "type": "uint256"
        }
      ],
      "name": "PawnCreated",
      "type": "event"
    },
    {
      "anonymous": false,
      "inputs": [
        {
          "indexed": true,
          "internalType": "uint256",
          "name": "pawnId",
          "type": "uint256"
        },
        {
          "indexed": true,
          "internalType": "address",
          "name": "account",
          "type": "address"
        },
        {
          "indexed": false,
          "internalType": "uint256",
          "name": "loanAmount",
          "type": "uint256"
        }
      ],
      "name": "PawnLoaned",
      "type": "event"
    },
    {
      "anonymous": false,
      "inputs": [
        {
          "indexed": true,
          "internalType": "uint256",
          "name": "pawnId",
          "type": "uint256"
        },
        {
          "indexed": true,
          "internalType": "address",
          "name": "account",
          "type": "address"
        },
        {
          "indexed": false,
          "internalType": "address",
          "name": "nftAddress",
          "type": "address"
        },
        {
          "indexed": false,
          "internalType": "uint256",
          "name": "nftId",
          "type": "uint256"
        }
      ],
      "name": "PawnRedeemed",
      "type": "event"
    },
    {
      "anonymous": false,
      "inputs": [
        {
          "indexed": true,
          "internalType": "address",
          "name": "account",
          "type": "address"
        },
        {
          "indexed": false,
          "internalType": "uint256",
          "name": "amount",
          "type": "uint256"
        }
      ],
      "name": "Withdraw",
      "type": "event"
    },
    {
      "inputs": [
        {
          "internalType": "uint256",
          "name": "_pawnId",
          "type": "uint256"
        }
      ],
      "name": "cancelPawn",
      "outputs": [],
      "stateMutability": "nonpayable",
      "type": "function"
    },
    {
      "inputs": [
        {
          "internalType": "uint256",
          "name": "_pawnId",
          "type": "uint256"
        }
      ],
      "name": "confiscate",
      "outputs": [],
      "stateMutability": "nonpayable",
      "type": "function"
    },
    {
      "inputs": [
        {
          "internalType": "address",
          "name": "_nftAddress",
          "type": "address"
        },
        {
          "internalType": "uint256",
          "name": "_nftId",
          "type": "uint256"
        },
        {
          "internalType": "uint256",
          "name": "_loanAmount",
          "type": "uint256"
        },
        {
          "internalType": "uint256",
          "name": "_interest",
          "type": "uint256"
        },
        {
          "internalType": "uint256",
          "name": "_loanDeadline",
          "type": "uint256"
        },
        {
          "internalType": "uint256",
          "name": "_redemptionDeadline",
          "type": "uint256"
        }
      ],
      "name": "createPawn",
      "outputs": [
        {
          "internalType": "uint256",
          "name": "",
          "type": "uint256"
        }
      ],
      "stateMutability": "nonpayable",
      "type": "function"
    },
    {
      "inputs": [],
      "name": "getAllPawns",
      "outputs": [
        {
          "components": [
            {
              "internalType": "uint256",
              "name": "pawnId",
              "type": "uint256"
            },
            {
              "internalType": "address",
              "name": "nftOwner",
              "type": "address"
            },
            {
              "internalType": "address",
              "name": "nftAddress",
              "type": "address"
            },
            {
              "internalType": "uint256",
              "name": "nftId",
              "type": "uint256"
            },
            {
              "internalType": "uint256",
              "name": "loanAmount",
              "type": "uint256"
            },
            {
              "internalType": "uint256",
              "name": "interest",
              "type": "uint256"
            },
            {
              "internalType": "uint256",
              "name": "loanDeadline",
              "type": "uint256"
            },
            {
              "internalType": "uint256",
              "name": "redemptionDeadline",
              "type": "uint256"
            },
            {
              "internalType": "address",
              "name": "creditor",
              "type": "address"
            },
            {
              "internalType": "enum Pawnshop.Status",
              "name": "status",
              "type": "uint8"
            }
          ],
          "internalType": "struct Pawnshop.Pawn[]",
          "name": "",
          "type": "tuple[]"
        }
      ],
      "stateMutability": "view",
      "type": "function"
    },
    {
      "inputs": [
        {
          "internalType": "uint256",
          "name": "_pawnId",
          "type": "uint256"
        }
      ],
      "name": "loan",
      "outputs": [],
      "stateMutability": "payable",
      "type": "function"
    },
    {
      "inputs": [
        {
          "internalType": "address",
          "name": "operator",
          "type": "address"
        },
        {
          "internalType": "address",
          "name": "from",
          "type": "address"
        },
        {
          "internalType": "uint256",
          "name": "tokenId",
          "type": "uint256"
        },
        {
          "internalType": "bytes",
          "name": "data",
          "type": "bytes"
        }
      ],
      "name": "onERC721Received",
      "outputs": [
        {
          "internalType": "bytes4",
          "name": "",
          "type": "bytes4"
        }
      ],
      "stateMutability": "nonpayable",
      "type": "function"
    },
    {
      "inputs": [],
      "name": "owner",
      "outputs": [
        {
          "internalType": "address",
          "name": "",
          "type": "address"
        }
      ],
      "stateMutability": "view",
      "type": "function"
    },
    {
      "inputs": [
        {
          "internalType": "uint256",
          "name": "",
          "type": "uint256"
        }
      ],
      "name": "pawnIds",
      "outputs": [
        {
          "internalType": "uint256",
          "name": "",
          "type": "uint256"
        }
      ],
      "stateMutability": "view",
      "type": "function"
    },
    {
      "inputs": [
        {
          "internalType": "uint256",
          "name": "",
          "type": "uint256"
        }
      ],
      "name": "pawns",
      "outputs": [
        {
          "internalType": "uint256",
          "name": "pawnId",
          "type": "uint256"
        },
        {
          "internalType": "address",
          "name": "nftOwner",
          "type": "address"
        },
        {
          "internalType": "address",
          "name": "nftAddress",
          "type": "address"
        },
        {
          "internalType": "uint256",
          "name": "nftId",
          "type": "uint256"
        },
        {
          "internalType": "uint256",
          "name": "loanAmount",
          "type": "uint256"
        },
        {
          "internalType": "uint256",
          "name": "interest",
          "type": "uint256"
        },
        {
          "internalType": "uint256",
          "name": "loanDeadline",
          "type": "uint256"
        },
        {
          "internalType": "uint256",
          "name": "redemptionDeadline",
          "type": "uint256"
        },
        {
          "internalType": "address",
          "name": "creditor",
          "type": "address"
        },
        {
          "internalType": "enum Pawnshop.Status",
          "name": "status",
          "type": "uint8"
        }
      ],
      "stateMutability": "view",
      "type": "function"
    },
    {
      "inputs": [],
      "name": "pawnsAmount",
      "outputs": [
        {
          "internalType": "uint256",
          "name": "",
          "type": "uint256"
        }
      ],
      "stateMutability": "view",
      "type": "function"
    },
    {
      "inputs": [
        {
          "internalType": "uint256",
          "name": "_pawnId",
          "type": "uint256"
        }
      ],
      "name": "redeem",
      "outputs": [],
      "stateMutability": "payable",
      "type": "function"
    },
    {
      "inputs": [],
      "name": "renounceOwnership",
      "outputs": [],
      "stateMutability": "nonpayable",
      "type": "function"
    },
    {
      "inputs": [
        {
          "internalType": "address",
          "name": "newOwner",
          "type": "address"
        }
      ],
      "name": "transferOwnership",
      "outputs": [],
      "stateMutability": "nonpayable",
      "type": "function"
    },
    {
      "inputs": [],
      "name": "withdraw",
      "outputs": [],
      "stateMutability": "nonpayable",
      "type": "function"
    }
  ],
  "bytecode": "0x60806040526200002462000018620000a260201b60201c565b620000aa60201b60201c565b600180819055503273ffffffffffffffffffffffffffffffffffffffff163373ffffffffffffffffffffffffffffffffffffffff16146200009c576040517f08c379a00000000000000000000000000000000000000000000000000000000081526004016200009390620001f5565b60405180910390fd5b62000217565b600033905090565b60008060009054906101000a900473ffffffffffffffffffffffffffffffffffffffff169050816000806101000a81548173ffffffffffffffffffffffffffffffffffffffff021916908373ffffffffffffffffffffffffffffffffffffffff1602179055508173ffffffffffffffffffffffffffffffffffffffff168173ffffffffffffffffffffffffffffffffffffffff167f8be0079c531659141344cd1fd0a4f28419497f9722a3daafe3b4186f6b6457e060405160405180910390a35050565b600082825260208201905092915050565b7f4f6e6c792065787465726e616c6c79206f776e6564206163636f756e7473206360008201527f616e20637265617465207468697320636f6e74726163742e0000000000000000602082015250565b6000620001dd6038836200016e565b9150620001ea826200017f565b604082019050919050565b600060208201905081810360008301526200021081620001ce565b9050919050565b61347e80620002276000396000f3fe6080604052600436106100dc5760003560e01c8063715018a61161007f57806393b49bd31161005957806393b49bd314610295578063bb73fbda146102be578063db006a75146102fb578063f2fde38b14610317576100dc565b8063715018a61461022857806385ac83601461023f5780638da5cb5b1461026a576100dc565b8063365a5306116100bb578063365a53061461018f57806337a5f08a146101ab5780633ccfd60b146101e85780633ce11def146101ff576100dc565b8062bcdb9b146100e1578063150b7a0214610127578063299e35ec14610164575b600080fd5b3480156100ed57600080fd5b506101086004803603810190610103919061224a565b610340565b60405161011e9a9998979695949392919061233e565b60405180910390f35b34801561013357600080fd5b5061014e6004803603810190610149919061246b565b610401565b60405161015b919061252e565b60405180910390f35b34801561017057600080fd5b50610179610497565b60405161018691906126f2565b60405180910390f35b6101a960048036038101906101a4919061224a565b61096b565b005b3480156101b757600080fd5b506101d260048036038101906101cd919061224a565b610bba565b6040516101df9190612714565b60405180910390f35b3480156101f457600080fd5b506101fd610bde565b005b34801561020b57600080fd5b506102266004803603810190610221919061224a565b610cd4565b005b34801561023457600080fd5b5061023d610f5a565b005b34801561024b57600080fd5b50610254610f6e565b6040516102619190612714565b60405180910390f35b34801561027657600080fd5b5061027f610f74565b60405161028c919061272f565b60405180910390f35b3480156102a157600080fd5b506102bc60048036038101906102b7919061224a565b610f9d565b005b3480156102ca57600080fd5b506102e560048036038101906102e0919061274a565b611269565b6040516102f29190612714565b60405180910390f35b6103156004803603810190610310919061224a565b6118ff565b005b34801561032357600080fd5b5061033e600480360381019061033991906127d7565b611c69565b005b60026020528060005260406000206000915090508060000154908060010160009054906101000a900473ffffffffffffffffffffffffffffffffffffffff16908060020160009054906101000a900473ffffffffffffffffffffffffffffffffffffffff16908060030154908060040154908060050154908060060154908060070154908060080160009054906101000a900473ffffffffffffffffffffffffffffffffffffffff16908060080160149054906101000a900460ff1690508a565b6000838573ffffffffffffffffffffffffffffffffffffffff168773ffffffffffffffffffffffffffffffffffffffff167fa05d90f300156ad1b545bc5d8197024456f21d22a708f5af04dd293e3d6052518686604051610463929190612862565b60405180910390a47f150b7a023d4804d13e8c85fb27262cb750cf6ba9f9dd3bb30d90f482ceeb4b1f905095945050505050565b6060600060038054905067ffffffffffffffff8111156104ba576104b9612886565b5b6040519080825280602002602001820160405280156104f357816020015b6104e0612163565b8152602001906001900390816104d85790505b5090506000805b60038054905081101561095f5760006002600060038481548110610521576105206128b5565b5b9060005260206000200154815260200190815260200160002060405180610140016040529081600082015481526020016001820160009054906101000a900473ffffffffffffffffffffffffffffffffffffffff1673ffffffffffffffffffffffffffffffffffffffff1673ffffffffffffffffffffffffffffffffffffffff1681526020016002820160009054906101000a900473ffffffffffffffffffffffffffffffffffffffff1673ffffffffffffffffffffffffffffffffffffffff1673ffffffffffffffffffffffffffffffffffffffff16815260200160038201548152602001600482015481526020016005820154815260200160068201548152602001600782015481526020016008820160009054906101000a900473ffffffffffffffffffffffffffffffffffffffff1673ffffffffffffffffffffffffffffffffffffffff1673ffffffffffffffffffffffffffffffffffffffff1681526020016008820160149054906101000a900460ff1660048111156106a9576106a86122c7565b5b60048111156106bb576106ba6122c7565b5b8152505090503373ffffffffffffffffffffffffffffffffffffffff16816020015173ffffffffffffffffffffffffffffffffffffffff16148061072f57503373ffffffffffffffffffffffffffffffffffffffff1681610100015173ffffffffffffffffffffffffffffffffffffffff16145b80610763575060006004811115610749576107486122c7565b5b8161012001516004811115610761576107606122c7565b5b145b1561094b5760026000600384815481106107805761077f6128b5565b5b9060005260206000200154815260200190815260200160002060405180610140016040529081600082015481526020016001820160009054906101000a900473ffffffffffffffffffffffffffffffffffffffff1673ffffffffffffffffffffffffffffffffffffffff1673ffffffffffffffffffffffffffffffffffffffff1681526020016002820160009054906101000a900473ffffffffffffffffffffffffffffffffffffffff1673ffffffffffffffffffffffffffffffffffffffff1673ffffffffffffffffffffffffffffffffffffffff16815260200160038201548152602001600482015481526020016005820154815260200160068201548152602001600782015481526020016008820160009054906101000a900473ffffffffffffffffffffffffffffffffffffffff1673ffffffffffffffffffffffffffffffffffffffff1673ffffffffffffffffffffffffffffffffffffffff1681526020016008820160149054906101000a900460ff166004811115610908576109076122c7565b5b600481111561091a576109196122c7565b5b81525050848381518110610931576109306128b5565b5b6020026020010181905250828061094790612913565b9350505b50808061095790612913565b9150506104fa565b50808252819250505090565b610973611cec565b60006002600083815260200190815260200160002090508060080160149054906101000a900460ff1660048111156109ae576109ad6122c7565b5b600060048111156109c2576109c16122c7565b5b14610a02576040517f08c379a00000000000000000000000000000000000000000000000000000000081526004016109f9906129b8565b60405180910390fd5b80600601544210610a48576040517f08c379a0000000000000000000000000000000000000000000000000000000008152600401610a3f90612a24565b60405180910390fd5b8060040154341015610a8f576040517f08c379a0000000000000000000000000000000000000000000000000000000008152600401610a8690612a90565b60405180910390fd5b8060010160009054906101000a900473ffffffffffffffffffffffffffffffffffffffff1673ffffffffffffffffffffffffffffffffffffffff166108fc610ade836004015460636064611d3b565b9081150290604051600060405180830381858888f19350505050158015610b09573d6000803e3d6000fd5b5060018160080160146101000a81548160ff02191690836004811115610b3257610b316122c7565b5b02179055508060080160009054906101000a900473ffffffffffffffffffffffffffffffffffffffff1673ffffffffffffffffffffffffffffffffffffffff16827f141569a63b9c1b5b57d20a729f2fd68cef56f2c6362ffea8504ebd35fce1c6528360040154604051610ba69190612714565b60405180910390a350610bb7611e16565b50565b60038181548110610bca57600080fd5b906000526020600020016000915090505481565b610be6611e1f565b600047905060008111610c2e576040517f08c379a0000000000000000000000000000000000000000000000000000000008152600401610c2590612afc565b60405180910390fd5b610c36610f74565b73ffffffffffffffffffffffffffffffffffffffff166108fc829081150290604051600060405180830381858888f19350505050158015610c7b573d6000803e3d6000fd5b50610c84610f74565b73ffffffffffffffffffffffffffffffffffffffff167f884edad9ce6fa2440d8a54cc123490eb96d2768479d49ff9c7366125a942436482604051610cc99190612714565b60405180910390a250565b60006002600083815260200190815260200160002090508060010160009054906101000a900473ffffffffffffffffffffffffffffffffffffffff1673ffffffffffffffffffffffffffffffffffffffff163373ffffffffffffffffffffffffffffffffffffffff1614610d7d576040517f08c379a0000000000000000000000000000000000000000000000000000000008152600401610d7490612b68565b60405180910390fd5b8060080160149054906101000a900460ff166004811115610da157610da06122c7565b5b60006004811115610db557610db46122c7565b5b14610df5576040517f08c379a0000000000000000000000000000000000000000000000000000000008152600401610dec90612bfa565b60405180910390fd5b8060020160009054906101000a900473ffffffffffffffffffffffffffffffffffffffff1673ffffffffffffffffffffffffffffffffffffffff166323b872dd303384600301546040518463ffffffff1660e01b8152600401610e5a93929190612c1a565b600060405180830381600087803b158015610e7457600080fd5b505af1158015610e88573d6000803e3d6000fd5b5050505060048160080160146101000a81548160ff02191690836004811115610eb457610eb36122c7565b5b02179055508060010160009054906101000a900473ffffffffffffffffffffffffffffffffffffffff1673ffffffffffffffffffffffffffffffffffffffff16827f5f4bdca5d1e0aed4287195ce47b1d0af02f7e16b3d2355a907e5f3018c52ee488360020160009054906101000a900473ffffffffffffffffffffffffffffffffffffffff168460030154604051610f4e929190612c51565b60405180910390a35050565b610f62611e1f565b610f6c6000611e9d565b565b60045481565b60008060009054906101000a900473ffffffffffffffffffffffffffffffffffffffff16905090565b60006002600083815260200190815260200160002090508060080160009054906101000a900473ffffffffffffffffffffffffffffffffffffffff1673ffffffffffffffffffffffffffffffffffffffff163373ffffffffffffffffffffffffffffffffffffffff1614611046576040517f08c379a000000000000000000000000000000000000000000000000000000000815260040161103d90612cc6565b60405180910390fd5b8060070154421161108c576040517f08c379a000000000000000000000000000000000000000000000000000000000815260040161108390612d32565b60405180910390fd5b8060080160149054906101000a900460ff1660048111156110b0576110af6122c7565b5b600160048111156110c4576110c36122c7565b5b14611104576040517f08c379a00000000000000000000000000000000000000000000000000000000081526004016110fb90612d9e565b60405180910390fd5b8060020160009054906101000a900473ffffffffffffffffffffffffffffffffffffffff1673ffffffffffffffffffffffffffffffffffffffff166323b872dd303384600301546040518463ffffffff1660e01b815260040161116993929190612c1a565b600060405180830381600087803b15801561118357600080fd5b505af1158015611197573d6000803e3d6000fd5b5050505060038160080160146101000a81548160ff021916908360048111156111c3576111c26122c7565b5b02179055508060080160009054906101000a900473ffffffffffffffffffffffffffffffffffffffff1673ffffffffffffffffffffffffffffffffffffffff16827f63c555bcc86058bc26c368585e7a8bcce7ab0b04972cc0bbbc0c727309f2d14c8360020160009054906101000a900473ffffffffffffffffffffffffffffffffffffffff16846003015460405161125d929190612c51565b60405180910390a35050565b60004283116112ad576040517f08c379a00000000000000000000000000000000000000000000000000000000081526004016112a490612e56565b60405180910390fd5b8282116112ef576040517f08c379a00000000000000000000000000000000000000000000000000000000081526004016112e690612f0e565b60405180910390fd5b60008511611332576040517f08c379a000000000000000000000000000000000000000000000000000000000815260040161132990612fa0565b60405180910390fd5b60008411611375576040517f08c379a000000000000000000000000000000000000000000000000000000000815260040161136c90613032565b60405180910390fd5b8673ffffffffffffffffffffffffffffffffffffffff166342842e0e3330896040518463ffffffff1660e01b81526004016113b293929190612c1a565b600060405180830381600087803b1580156113cc57600080fd5b505af11580156113e0573d6000803e3d6000fd5b5050505060006004600081546113f590612913565b9190508190559050806002600083815260200190815260200160002060000181905550336002600083815260200190815260200160002060010160006101000a81548173ffffffffffffffffffffffffffffffffffffffff021916908373ffffffffffffffffffffffffffffffffffffffff160217905550876002600083815260200190815260200160002060020160006101000a81548173ffffffffffffffffffffffffffffffffffffffff021916908373ffffffffffffffffffffffffffffffffffffffff16021790555086600260008381526020019081526020016000206003018190555085600260008381526020019081526020016000206004018190555084600260008381526020019081526020016000206005018190555082600260008381526020019081526020016000206007018190555083600260008381526020019081526020016000206006018190555060038190806001815401808255809150506001900390600052602060002001600090919091909150556115c76040518060400160405280600981526020017f7061776e49643a257300000000000000000000000000000000000000000000008152506002600084815260200190815260200160002060000154611f61565b61163c6040518060400160405280600b81526020017f6e66744f776e65723a25730000000000000000000000000000000000000000008152506002600084815260200190815260200160002060010160009054906101000a900473ffffffffffffffffffffffffffffffffffffffff16611ffd565b6116b16040518060400160405280600d81526020017f6e6674416464726573733a2573000000000000000000000000000000000000008152506002600084815260200190815260200160002060020160009054906101000a900473ffffffffffffffffffffffffffffffffffffffff16611ffd565b6117066040518060400160405280600881526020017f6e667449643a25730000000000000000000000000000000000000000000000008152506002600084815260200190815260200160002060030154611f61565b61175b6040518060400160405280600d81526020017f6c6f616e416d6f756e743a2573000000000000000000000000000000000000008152506002600084815260200190815260200160002060040154611f61565b6117b06040518060400160405280600b81526020017f696e7465726573743a25730000000000000000000000000000000000000000008152506002600084815260200190815260200160002060050154611f61565b6118056040518060400160405280600f81526020017f6c6f616e446561646c696e653a257300000000000000000000000000000000008152506002600084815260200190815260200160002060060154611f61565b61185a6040518060400160405280601581526020017f726564656d7074696f6e446561646c696e653a257300000000000000000000008152506002600084815260200190815260200160002060070154611f61565b6118986040518060400160405280601981526020017f3d3d3d3d3d3d3d3d3d3d3d3d3d3d3d3d3d3d3d3d3d3d3d3d3d00000000000000815250612099565b3373ffffffffffffffffffffffffffffffffffffffff16817fdf79b58cf16043c3a8aff61fbc9b0e47bfd776ad11ccf99e1736fdcd8030847d8a8a8a8a8a8a6040516118e996959493929190613052565b60405180910390a3809150509695505050505050565b611907611cec565b60006002600083815260200190815260200160002090508060010160009054906101000a900473ffffffffffffffffffffffffffffffffffffffff1673ffffffffffffffffffffffffffffffffffffffff163373ffffffffffffffffffffffffffffffffffffffff16146119b0576040517f08c379a00000000000000000000000000000000000000000000000000000000081526004016119a790612b68565b60405180910390fd5b8060080160149054906101000a900460ff1660048111156119d4576119d36122c7565b5b600160048111156119e8576119e76122c7565b5b14611a28576040517f08c379a0000000000000000000000000000000000000000000000000000000008152600401611a1f906130ff565b60405180910390fd5b80600501548160040154611a3c919061311f565b341015611a7e576040517f08c379a0000000000000000000000000000000000000000000000000000000008152600401611a759061319f565b60405180910390fd5b8060020160009054906101000a900473ffffffffffffffffffffffffffffffffffffffff1673ffffffffffffffffffffffffffffffffffffffff166323b872dd303384600301546040518463ffffffff1660e01b8152600401611ae393929190612c1a565b600060405180830381600087803b158015611afd57600080fd5b505af1158015611b11573d6000803e3d6000fd5b505050508060080160009054906101000a900473ffffffffffffffffffffffffffffffffffffffff1673ffffffffffffffffffffffffffffffffffffffff166108fc82600501548360040154611b67919061311f565b9081150290604051600060405180830381858888f19350505050158015611b92573d6000803e3d6000fd5b5060028160080160146101000a81548160ff02191690836004811115611bbb57611bba6122c7565b5b02179055508060010160009054906101000a900473ffffffffffffffffffffffffffffffffffffffff1673ffffffffffffffffffffffffffffffffffffffff16827fb334d5c56e49cc9b6e4879cf5716523069695c1fb179da75d84bf0ec03fcad628360020160009054906101000a900473ffffffffffffffffffffffffffffffffffffffff168460030154604051611c55929190612c51565b60405180910390a350611c66611e16565b50565b611c71611e1f565b600073ffffffffffffffffffffffffffffffffffffffff168173ffffffffffffffffffffffffffffffffffffffff1603611ce0576040517f08c379a0000000000000000000000000000000000000000000000000000000008152600401611cd790613231565b60405180910390fd5b611ce981611e9d565b50565b600260015403611d31576040517f08c379a0000000000000000000000000000000000000000000000000000000008152600401611d289061329d565b60405180910390fd5b6002600181905550565b6000806000801985870985870292508281108382030391505060008103611d7657838281611d6c57611d6b6132bd565b5b0492505050611e0f565b808411611d8257600080fd5b60008486880990508281118203915080830392506000600186190186169050808604955080840493506001818260000304019050808302841793506000600287600302189050808702600203810290508087026002038102905080870260020381029050808702600203810290508087026002038102905080870260020381029050808502955050505050505b9392505050565b60018081905550565b611e27612132565b73ffffffffffffffffffffffffffffffffffffffff16611e45610f74565b73ffffffffffffffffffffffffffffffffffffffff1614611e9b576040517f08c379a0000000000000000000000000000000000000000000000000000000008152600401611e9290613338565b60405180910390fd5b565b60008060009054906101000a900473ffffffffffffffffffffffffffffffffffffffff169050816000806101000a81548173ffffffffffffffffffffffffffffffffffffffff021916908373ffffffffffffffffffffffffffffffffffffffff1602179055508173ffffffffffffffffffffffffffffffffffffffff168173ffffffffffffffffffffffffffffffffffffffff167f8be0079c531659141344cd1fd0a4f28419497f9722a3daafe3b4186f6b6457e060405160405180910390a35050565b611ff98282604051602401611f779291906133c6565b6040516020818303038152906040527fb60e72cc000000000000000000000000000000000000000000000000000000007bffffffffffffffffffffffffffffffffffffffffffffffffffffffff19166020820180517bffffffffffffffffffffffffffffffffffffffffffffffffffffffff838183161783525050505061213a565b5050565b61209582826040516024016120139291906133f6565b6040516020818303038152906040527f319af333000000000000000000000000000000000000000000000000000000007bffffffffffffffffffffffffffffffffffffffffffffffffffffffff19166020820180517bffffffffffffffffffffffffffffffffffffffffffffffffffffffff838183161783525050505061213a565b5050565b61212f816040516024016120ad9190613426565b6040516020818303038152906040527f41304fac000000000000000000000000000000000000000000000000000000007bffffffffffffffffffffffffffffffffffffffffffffffffffffffff19166020820180517bffffffffffffffffffffffffffffffffffffffffffffffffffffffff838183161783525050505061213a565b50565b600033905090565b60008151905060006a636f6e736f6c652e6c6f679050602083016000808483855afa5050505050565b60405180610140016040528060008152602001600073ffffffffffffffffffffffffffffffffffffffff168152602001600073ffffffffffffffffffffffffffffffffffffffff1681526020016000815260200160008152602001600081526020016000815260200160008152602001600073ffffffffffffffffffffffffffffffffffffffff16815260200160006004811115612204576122036122c7565b5b81525090565b600080fd5b600080fd5b6000819050919050565b61222781612214565b811461223257600080fd5b50565b6000813590506122448161221e565b92915050565b6000602082840312156122605761225f61220a565b5b600061226e84828501612235565b91505092915050565b61228081612214565b82525050565b600073ffffffffffffffffffffffffffffffffffffffff82169050919050565b60006122b182612286565b9050919050565b6122c1816122a6565b82525050565b7f4e487b7100000000000000000000000000000000000000000000000000000000600052602160045260246000fd5b60058110612307576123066122c7565b5b50565b6000819050612318826122f6565b919050565b60006123288261230a565b9050919050565b6123388161231d565b82525050565b600061014082019050612354600083018d612277565b612361602083018c6122b8565b61236e604083018b6122b8565b61237b606083018a612277565b6123886080830189612277565b61239560a0830188612277565b6123a260c0830187612277565b6123af60e0830186612277565b6123bd6101008301856122b8565b6123cb61012083018461232f565b9b9a5050505050505050505050565b6123e3816122a6565b81146123ee57600080fd5b50565b600081359050612400816123da565b92915050565b600080fd5b600080fd5b600080fd5b60008083601f84011261242b5761242a612406565b5b8235905067ffffffffffffffff8111156124485761244761240b565b5b60208301915083600182028301111561246457612463612410565b5b9250929050565b6000806000806000608086880312156124875761248661220a565b5b6000612495888289016123f1565b95505060206124a6888289016123f1565b94505060406124b788828901612235565b935050606086013567ffffffffffffffff8111156124d8576124d761220f565b5b6124e488828901612415565b92509250509295509295909350565b60007fffffffff0000000000000000000000000000000000000000000000000000000082169050919050565b612528816124f3565b82525050565b6000602082019050612543600083018461251f565b92915050565b600081519050919050565b600082825260208201905092915050565b6000819050602082019050919050565b61257e81612214565b82525050565b61258d816122a6565b82525050565b61259c8161231d565b82525050565b610140820160008201516125b96000850182612575565b5060208201516125cc6020850182612584565b5060408201516125df6040850182612584565b5060608201516125f26060850182612575565b5060808201516126056080850182612575565b5060a082015161261860a0850182612575565b5060c082015161262b60c0850182612575565b5060e082015161263e60e0850182612575565b50610100820151612653610100850182612584565b50610120820151612668610120850182612593565b50505050565b600061267a83836125a2565b6101408301905092915050565b6000602082019050919050565b600061269f82612549565b6126a98185612554565b93506126b483612565565b8060005b838110156126e55781516126cc888261266e565b97506126d783612687565b9250506001810190506126b8565b5085935050505092915050565b6000602082019050818103600083015261270c8184612694565b905092915050565b60006020820190506127296000830184612277565b92915050565b600060208201905061274460008301846122b8565b92915050565b60008060008060008060c087890312156127675761276661220a565b5b600061277589828a016123f1565b965050602061278689828a01612235565b955050604061279789828a01612235565b94505060606127a889828a01612235565b93505060806127b989828a01612235565b92505060a06127ca89828a01612235565b9150509295509295509295565b6000602082840312156127ed576127ec61220a565b5b60006127fb848285016123f1565b91505092915050565b600082825260208201905092915050565b82818337600083830152505050565b6000601f19601f8301169050919050565b60006128418385612804565b935061284e838584612815565b61285783612824565b840190509392505050565b6000602082019050818103600083015261287d818486612835565b90509392505050565b7f4e487b7100000000000000000000000000000000000000000000000000000000600052604160045260246000fd5b7f4e487b7100000000000000000000000000000000000000000000000000000000600052603260045260246000fd5b7f4e487b7100000000000000000000000000000000000000000000000000000000600052601160045260246000fd5b600061291e82612214565b91507fffffffffffffffffffffffffffffffffffffffffffffffffffffffffffffffff82036129505761294f6128e4565b5b600182019050919050565b600082825260208201905092915050565b7f546865207061776e206973206e6f742070656e64696e67000000000000000000600082015250565b60006129a260178361295b565b91506129ad8261296c565b602082019050919050565b600060208201905081810360008301526129d181612995565b9050919050565b7f546f6f206c61746520746f206c6f616e00000000000000000000000000000000600082015250565b6000612a0e60108361295b565b9150612a19826129d8565b602082019050919050565b60006020820190508181036000830152612a3d81612a01565b9050919050565b7f596f752073686f756c6420706179206d6f726520746f206c6f616e0000000000600082015250565b6000612a7a601b8361295b565b9150612a8582612a44565b602082019050919050565b60006020820190508181036000830152612aa981612a6d565b9050919050565b7f42616c616e6365206973207a65726f0000000000000000000000000000000000600082015250565b6000612ae6600f8361295b565b9150612af182612ab0565b602082019050919050565b60006020820190508181036000830152612b1581612ad9565b9050919050565b7f49742773206e6f7420796f7572206e6674000000000000000000000000000000600082015250565b6000612b5260118361295b565b9150612b5d82612b1c565b602082019050919050565b60006020820190508181036000830152612b8181612b45565b9050919050565b7f596f752063616e2063616e656c207061776e206f6e6c79207768656e2069742060008201527f69732070656e64696e6700000000000000000000000000000000000000000000602082015250565b6000612be4602a8361295b565b9150612bef82612b88565b604082019050919050565b60006020820190508181036000830152612c1381612bd7565b9050919050565b6000606082019050612c2f60008301866122b8565b612c3c60208301856122b8565b612c496040830184612277565b949350505050565b6000604082019050612c6660008301856122b8565b612c736020830184612277565b9392505050565b7f596f7520617265206e6f7420746865206372656469746f720000000000000000600082015250565b6000612cb060188361295b565b9150612cbb82612c7a565b602082019050919050565b60006020820190508181036000830152612cdf81612ca3565b9050919050565b7f546f6f206561726c7920746f20636f6e66697363617465000000000000000000600082015250565b6000612d1c60178361295b565b9150612d2782612ce6565b602082019050919050565b60006020820190508181036000830152612d4b81612d0f565b9050919050565b7f546865207061776e206973206e6f74207061776e696e67000000000000000000600082015250565b6000612d8860178361295b565b9150612d9382612d52565b602082019050919050565b60006020820190508181036000830152612db781612d7b565b9050919050565b7f546865206c6f616e2064697362757273656d656e7420646561646c696e65207360008201527f686f756c64206265206c61746572207468616e207468652063757272656e742060208201527f74696d6500000000000000000000000000000000000000000000000000000000604082015250565b6000612e4060448361295b565b9150612e4b82612dbe565b606082019050919050565b60006020820190508181036000830152612e6f81612e33565b9050919050565b7f54686520726564656d7074696f6e20646561646c696e652073686f756c64206260008201527f65206c61746572207468616e20746865206c6f616e2064697362757273656d6560208201527f6e7420646561646c696e65000000000000000000000000000000000000000000604082015250565b6000612ef8604b8361295b565b9150612f0382612e76565b606082019050919050565b60006020820190508181036000830152612f2781612eeb565b9050919050565b7f546865206c6f616e20616d6f756e742073686f756c64206c617267657220746860008201527f616e203000000000000000000000000000000000000000000000000000000000602082015250565b6000612f8a60248361295b565b9150612f9582612f2e565b604082019050919050565b60006020820190508181036000830152612fb981612f7d565b9050919050565b7f54686520696e74657265737420616d6f756e742073686f756c64206c6172676560008201527f72207468616e2030000000000000000000000000000000000000000000000000602082015250565b600061301c60288361295b565b915061302782612fc0565b604082019050919050565b6000602082019050818103600083015261304b8161300f565b9050919050565b600060c08201905061306760008301896122b8565b6130746020830188612277565b6130816040830187612277565b61308e6060830186612277565b61309b6080830185612277565b6130a860a0830184612277565b979650505050505050565b7f546865206e6674206973206e6f74207061776e696e6700000000000000000000600082015250565b60006130e960168361295b565b91506130f4826130b3565b602082019050919050565b60006020820190508181036000830152613118816130dc565b9050919050565b600061312a82612214565b915061313583612214565b925082820190508082111561314d5761314c6128e4565b5b92915050565b7f596f752073686f756c6420706179206d6f726520746f2072656465656d000000600082015250565b6000613189601d8361295b565b915061319482613153565b602082019050919050565b600060208201905081810360008301526131b88161317c565b9050919050565b7f4f776e61626c653a206e6577206f776e657220697320746865207a65726f206160008201527f6464726573730000000000000000000000000000000000000000000000000000602082015250565b600061321b60268361295b565b9150613226826131bf565b604082019050919050565b6000602082019050818103600083015261324a8161320e565b9050919050565b7f5265656e7472616e637947756172643a207265656e7472616e742063616c6c00600082015250565b6000613287601f8361295b565b915061329282613251565b602082019050919050565b600060208201905081810360008301526132b68161327a565b9050919050565b7f4e487b7100000000000000000000000000000000000000000000000000000000600052601260045260246000fd5b7f4f776e61626c653a2063616c6c6572206973206e6f7420746865206f776e6572600082015250565b600061332260208361295b565b915061332d826132ec565b602082019050919050565b6000602082019050818103600083015261335181613315565b9050919050565b600081519050919050565b60005b83811015613381578082015181840152602081019050613366565b60008484015250505050565b600061339882613358565b6133a2818561295b565b93506133b2818560208601613363565b6133bb81612824565b840191505092915050565b600060408201905081810360008301526133e0818561338d565b90506133ef6020830184612277565b9392505050565b60006040820190508181036000830152613410818561338d565b905061341f60208301846122b8565b9392505050565b60006020820190508181036000830152613440818461338d565b90509291505056fea26469706673582212205f538660dae2f140083b0a7cececd7a94a37e82b779707a7cfa59e93ac7bdc8a64736f6c63430008110033",
  "linkReferences": {},
  "deployedLinkReferences": {}
}